:100000000C9463000C948B000C948B000C948B006C
:100010000C948B000C948B000C948B000C940906B0
:100020000C948B000C948B000C948B000C94F607B2
:100030000C948B000C948B000C948B000C948B0014
:100040000C940D070C948B000C947E050C945805B1
:100050000C948B000C948B000C948B000C948B00F4
:100060000C948B000C948B0001020408102040803B
:100070000102040810200102040810200000000002
:10008000250028002B0004040404040404040202D4
:100090000202020203030303030302000000002420
:1000A0000027002A0000000000230026002900008D
:1000B0000000080002010000030407000000000027
:1000C00000000000670A11241FBECFEFD8E0DEBF9A
:1000D000CDBF22E0ACE5B1E001C01D92AA3CB20761
:1000E000E1F711E0A0E0B1E0E2E6F5E202C0059040
:1000F0000D92AC35B107D9F710E0C3E6D0E004C0EB
:100100002197FE010E94F510C236D107C9F70E945F
:10011000B10A0C94AF120C94000080E480937C0030
:1001200080917A00806480937A0080917A0086FDC5
:10013000FCCF809178002091790090E0922B089577
:100140001F93CF93DF93EC01162F88818C3008F03A
:1001500050C061E0812F0E948B068881E82FF0E07B
:100160009F01220F331FE20FF31FEF56FE4F1F7345
:100170009081907C192B10839EE8998394E69A8352
:100180006CE00E94BA109CE0899FB001112440E00D
:1001900050E09A01260F371FF901EE0FFF1F2E0FB7
:1001A0003F1FF901EF56FE4F908196FD16C04F5F3D
:1001B0005F4F4C30510569F781110FC010928000DC
:1001C00082E0809381001092850010928400B19AA1
:1001D00080916F00826080936F00E881F0E0CF0132
:1001E000880F991FE80FF91FEF56FE4F808180643A
:1001F00080838881DF91CF911F910895CF93DF9302
:1002000080919F02811145C0809197029091980240
:10021000DC01ED91FC910480F581E02D09950397B7
:10022000C4F18091970290919802DC01ED91FC91CC
:100230000680F781E02D0995A0919702B091980270
:10024000ED91FC911197069741F00480F581E02D26
:10025000CD01099503972CF74EC00680F781E02D5C
:10026000CD01099585389105A1F48091970290916F
:100270009802DC01ED91FC910680F781E02D099553
:1002800080939F0290919B02891719F010929F0210
:1002900032C080919F02882371F1809197029091E2
:1002A0009802DC01ED91FC910480F581E02D099527
:1002B00030919F0220919E02892BF9F03217E8F0CD
:1002C000C0919C02D0919D0281E0820F80939E029A
:1002D000C20FD11D8091970290919802DC01ED919F
:1002E000FC910680F781E02D09958883D6CF109286
:1002F0009F0210929E0280E033C0A32FB0E0822FB5
:1003000090E0AC0141505109A417B507A1F7309313
:10031000A00260919C0270919D02FB012091A002BD
:10032000AF01461B570B4A175B072CF4319123276B
:100330002093A002F3CF860F971FFC013197808195
:100340002813D5CF40919B0250E080919902909163
:100350009A020E942D1210929F0210929E0281E03A
:10036000DF91CF9108953F924F925F926F927F926B
:100370008F929F92AF92BF92CF92DF92EF92FF92B5
:100380000F931F93CF93DF9300D000D0CDB7DEB78C
:1003900020910401213121F02F3F09F02CC204C02B
:1003A000EAE9F0E0349076C021E120930401EAE923
:1003B000F0E0E491EF3F09F41EC2E13011F1E230C8
:1003C00009F443C0E11165C014BC15BC24B522601A
:1003D00024BD25B5216025BDE7E9F0E0E491F0E01A
:1003E000EE0FFF1FE458FF4F259134913093A60282
:1003F0002093A502E9E7F0E0E491E093A402312C18
:100400004BC01092800010928100209181002860E2
:100410002093810020918100216020938100E7E9F1
:10042000F0E0E491F0E0EE0FFF1FE458FF4F25915C
:1004300034913093A3022093A202E9E7F0E0E49123
:10044000E093A1023324339427C01092B00010929D
:10045000B1002091B00022602093B0002091B10043
:1004600021602093B100E7E9F0E0E491F0E0EE0FC5
:10047000FF1FE458FF4F259134913093B70120932B
:10048000B601E9E7F0E0E491E093B501B2E03B2E7C
:1004900003C03E2E37FCAFC12A013B018C0161E055
:1004A00081E10E948B064801A12CB12C832D8D7F08
:1004B00009F0BBC060E072E18AE790E0A501940119
:1004C0000E944C1229833A834B835C8369017A0131
:1004D00021E0C21AD108E108F1088FEFC816D10453
:1004E000E104F10409F008F44CC060E472E48FE028
:1004F00090E0A50194010E944C1269017A01E1E0AB
:10050000CE1AD108E108F108F2E03F1220C02FEF27
:10051000C216D104E104F10409F008F46AC160E9EB
:1005200070ED83E090E0A50194010E944C126901F6
:100530007A0181E0C81AD108E108F108EFEFCE1680
:10054000D104E104F10409F0D0F583E067C0FFEFC6
:10055000CF16D104E104F104B1F0A8F068E478EE1C
:1005600081E090E0A50194010E944C1269017A019A
:1005700081E0C81AD108E108F108332009F4DFC08E
:100580002FC181E001C082E03320A1F047C0898102
:100590009A81AB81BC812AE0B595A79597958795FF
:1005A0002A95D1F76C017D0121E0C21AD108E1083A
:1005B000F10885E095B5987F892B85BD6FC068E40B
:1005C00078EE81E090E0A50194010E944C1269014F
:1005D0007A01F1E0CF1AD108E108F1082FEFC21635
:1005E000D104E104F10409F008F4A7C064E274EF57
:1005F00080E090E0A50194010E944C1269017A010B
:10060000E1E0CE1AD108E108F108FFEFCF16D104DE
:10061000E104F10411F008F0B4C085E09091B1005C
:10062000987F892B8093B10039C060E072E18AE73E
:1006300090E0A50194010E944C1269017A0181E0C9
:10064000C81AD108E108F108C114D104E1E0EE06AE
:10065000F10488F068E478EE81E090E0A50194016F
:100660000E944C1269017A01F1E0CF1AD108E10829
:10067000F10893E001C091E021E032120FC08091B7
:100680008100887F892B809381004114510461048B
:10069000710449F42FEF3FEFA9012DC0411451041B
:1006A0006104710471F0D801AA0FBB1FA30192016C
:1006B0000E946B1228EE33E040E050E00E947E1270
:1006C00003C02FEF3FEFA90181E03816A1F0E2E06F
:1006D0003E1619F131108FC0C7BC2093AB02309386
:1006E000AC024093AD025093AE0280916E008260E6
:1006F00080936E0080C0D0928900C09288002093C1
:10070000A7023093A8024093A9025093AA028091B5
:100710006F00826080936F006EC0C092B300209320
:10072000B8013093B9014093BA015093BB01809155
:1007300070008260809370005EC084E06FCFFFEF36
:10074000CF16D104E104F104D1F0C8F062E17AE7F8
:1007500080E090E0A50194010E944C1269017A01A9
:1007600081E0C81AD108E108F108EFEFCE16D104F4
:10077000E104F10411F008F00ACF84E01BCF83E01C
:1007800019CF62E17AE780E090E0A50194010E9430
:100790004C1269017A0181E0C81AD108E108F10818
:1007A000EFEFCE16D104E104F104C1F0B8F0898175
:1007B0009A81AB81BC814AE0B595A79597958795BD
:1007C0004A95D1F76C017D0121E0C21AD108E108F8
:1007D000F108332009F4EDCE87E020CF86E0D4CEB7
:1007E000FFEFCF16D104E104F10409F050F684E0E4
:1007F000CBCE82E013CF0F900F900F900F90DF9130
:10080000CF911F910F91FF90EF90DF90CF90BF900D
:10081000AF909F908F907F906F905F904F903F90A0
:100820000895CF92DF92EF92FF920F931F93CF9391
:10083000DF936C017A018B01C0E0D0E0CE15DF05BB
:1008400089F0D8016D918D01D601ED91FC91019057
:10085000F081E02DC6010995892B11F47E0102C0BB
:100860002196ECCFC701DF91CF911F910F91FF909F
:10087000EF90DF90CF900895FC01918D828D9817B5
:1008800061F0828DDF01A80FB11D5D968C91928D74
:100890009F5F9F73928F90E008958FEF9FEF089571
:1008A000FC01918D828D981731F0828DE80FF11D3A
:1008B000858D90E008958FEF9FEF0895FC01918D55
:1008C000228D892F90E0805C9F4F821B91098F734E
:1008D000992708958CEB91E00E945E0421E0892B1A
:1008E00009F420E0822F0895FC01848DDF01A80F18
:1008F000B11DA35ABF4F2C91848D90E001968F7348
:100900009927848FA689B7892C93A089B1898C9166
:1009100080648C93938D848D981306C00288F3892C
:10092000E02D80818F7D80830895EF92FF920F9359
:100930001F93CF93DF93EC0181E0888F9B8D8C8D8B
:10094000981305C0E889F989808185FD24C0F62EB9
:100950000B8D10E00F5F1F4F0F731127E02E8C8D52
:10096000E8120CC00FB607FCFACFE889F98980813C
:1009700085FFF5CFCE010E947404F1CF8B8DFE016F
:10098000E80FF11DE35AFF4FF0820B8FEA89FB89D4
:100990008081806207C0EE89FF896083E889F989D8
:1009A00080818064808381E090E0DF91CF911F910E
:1009B0000F91FF90EF900895CF93DF93EC01888D16
:1009C0008823C9F0EA89FB89808185FD05C0A88953
:1009D000B9898C9186FD0FC00FB607FCF5CF8081D9
:1009E00085FFF2CFA889B9898C9185FFEDCFCE0123
:1009F0000E947404E7CFDF91CF91089580E090E0EA
:100A0000892B29F00E946A0481110C94000008953A
:100A1000833081F028F4813099F08230A1F008957C
:100A20008730A9F08830B9F08430D1F4809180000B
:100A30008F7D03C0809180008F7780938000089520
:100A400084B58F7702C084B58F7D84BD0895809171
:100A5000B0008F7703C08091B0008F7D8093B0008D
:100A600008953FB7F8948091C2029091C302A0917B
:100A7000C402B091C50226B5A89B05C02F3F19F04E
:100A80000196A11DB11D3FBFBA2FA92F982F88270E
:100A9000820F911DA11DB11DBC01CD0142E0660F69
:100AA000771F881F991F4A95D1F708950E94281231
:100AB0001F920F920FB60F9211242F933F934F93D3
:100AC0005F936F937F938F939F93AF93BF93EF93B6
:100AD000FF938CEB91E00E947404FF91EF91BF9122
:100AE000AF919F918F917F916F915F914F913F91C6
:100AF0002F910F900FBE0F901F9018951F920F927D
:100B00000FB60F9211242F938F939F93EF93FF9320
:100B1000E091CC01F091CD018081E091D201F09182
:100B2000D30182FD12C090818091D5018F5F8F73B8
:100B30002091D601821751F0E091D501F0E0E45404
:100B4000FE4F958F8093D50101C08081FF91EF9179
:100B50009F918F912F910F900FBE0F901F9018951E
:100B6000CF93DF93282F30E0F901E155FF4F8491B7
:100B7000F901E859FF4FD491F901EA57FF4FC491A9
:100B8000CC2391F081110E940805EC2FF0E0EE0FCC
:100B9000FF1FEB55FF4FA591B491EC91ED2381E040
:100BA00090E021F480E002C080E090E0DF91CF91FE
:100BB00008951F93CF93DF93282F30E0F901E1557B
:100BC000FF4F8491F901E859FF4FD491F901EA5799
:100BD000FF4FC491CC23C9F0162F81110E94080544
:100BE000EC2FF0E0EE0FFF1FE458FF4FA591B491FA
:100BF0008FB7F894111105C09C91ED2FE095E92372
:100C000002C0EC91ED2BEC938FBFDF91CF911F9140
:100C100008951F920F920FB60F9211242F933F93B6
:100C20004F935F936F937F938F939F93AF93BF93F4
:100C3000EF93FF938091B8019091B901A091BA010F
:100C4000B091BB01892B8A2B8B2B59F18091B50177
:100C5000E091B601F091B70190818927808380915E
:100C6000B8019091B901A091BA01B091BB011816D9
:100C700019061A061B060CF03DC08091B801909130
:100C8000B901A091BA01B091BB010197A109B109C5
:100C90008093B8019093B901A093BA01B093BB01BE
:100CA00029C080910401EAE9F0E0E4919FEF90937C
:100CB0000401E130B9F098F0E230C9F4909170008D
:100CC0009D7F9093700091E09093B0009091B1005F
:100CD000987F94609093B1001092B30008C0109276
:100CE0006E0005C090916F009D7F90936F0060E053
:100CF0000E94D905FF91EF91BF91AF919F918F9184
:100D00007F916F915F914F913F912F910F900FBE07
:100D10000F901F901895CF93DF9390E0FC01E85956
:100D2000FF4F2491FC01EA57FF4F8491882361F122
:100D300090E0880F991FFC01E556FF4FC591D491B3
:100D4000FC01E458FF4FA591B491611109C09FB710
:100D5000F8948881209582238883EC912E230BC000
:100D6000623061F49FB7F8943881822F8095832395
:100D70008883EC912E2B2C939FBF06C08FB7F894DD
:100D8000E8812E2B28838FBFDF91CF9108958F921A
:100D90009F92AF92BF92CF92DF92EF92FF926B0140
:100DA0007C010E9431054B015C01C114D104E104B6
:100DB000F104F1F00E943105DC01CB018819990999
:100DC000AA09BB09883E9340A105B10570F321E053
:100DD000C21AD108E108F10888EE880E83E0981E57
:100DE000A11CB11CC114D104E104F10419F7DDCF39
:100DF000FF90EF90DF90CF90BF90AF909F908F903B
:100E000008952FB7F8946091BE027091BF0280914F
:100E1000C0029091C1022FBF08951F920F920FB68A
:100E20000F9211242F933F938F939F93AF93BF9370
:100E30008091BE029091BF02A091C002B091C10208
:100E40003091BD0223E0230F2D3720F40196A11D20
:100E5000B11D05C026E8230F0296A11DB11D2093E8
:100E6000BD028093BE029093BF02A093C002B093D4
:100E7000C1028091C2029091C302A091C402B091BC
:100E8000C5020196A11DB11D8093C2029093C302B9
:100E9000A093C402B093C502BF91AF919F918F916F
:100EA0003F912F910F900FBE0F901F901895CF92EA
:100EB000DF92EF92FF92CF93DF93EC01603282E0FA
:100EC00078070CF03DC077FD06C0653B71052CF03E
:100ED00064EB70E002C060E070E0898128E830E0F7
:100EE0006901C81AD10887FDD394CC0CDD1CCC0C49
:100EF000DD1C0D2C000CEE08FF088A8128E532E08D
:100F0000281B310987FD3395220F331F220F331F12
:100F1000C901330FAA0BBB0B9C01AD012C193D0974
:100F20004E095F09DB010E94761224EB30E040E0BD
:100F300050E00E944C12C20ED31EE41EF51EB601F4
:100F400088818C3080F5998148E850E0491B51092F
:100F500097FD5395440F551F440F551F6417750790
:100F600084F09A8128E532E0291B310997FD3395F9
:100F7000220F331F220F331FAB01261737070CF444
:100F8000A90142505109440F551F2FB7F89490E022
:100F9000FC01EE0FFF1F8E0F9F1FFC01EF56FE4F4F
:100FA000528341832FBFDF91CF91FF90EF90DF906D
:100FB000CF900895FC019091BC029C30A0F481E098
:100FC000890F8093BC029083892F90E0FC01EE0F83
:100FD000FF1F8E0F9F1FFC01EF56FE4F88EB9BE01B
:100FE0009283818308958FEF808308951F920F92DB
:100FF0000FB60F9211242F933F934F935F936F93EC
:101000007F938F939F93AF93BF93EF93FF938091C1
:10101000BB0287FF05C010928500109284001BC0A0
:101020002091BB02022E000C330B8091BC0290E099
:101030002817390784F48091BB02082E000C990B05
:10104000FC01EE0FFF1F8E0F9F1FFC01EF56FE4F9E
:10105000808186FD15C08091BB028F5F8093BB02AB
:101060002091BB02022E000C330B8091BC0290E059
:1010700028173907C4F48091BB028C3064F113C087
:101080008091BB02082E000C990BFC01EE0FFF1F94
:101090008E0F9F1FFC01EF56FE4F808160E08F7323
:1010A0000E94D905D8CF8091840090918500049644
:1010B00080349C4918F480E49CE905C08091840048
:1010C00090918500049690938900809388008FEF1B
:1010D0008093BB023BC020918400309185008091B9
:1010E000BB02082E000C990BFC01EE0FFF1F8E0FA8
:1010F0009F1FFC01EF56FE4F81819281820F931F4B
:1011000090938900809388008091BB02082E000C88
:10111000990BFC01EE0FFF1F8E0F9F1FFC01EF5676
:10112000FE4F808186FF12C08091BB02082E000C0A
:10113000990BFC01EE0FFF1F8E0F9F1FFC01EF5656
:10114000FE4F808161E08F730E94D905FF91EF917E
:10115000BF91AF919F918F917F916F915F914F91CF
:101160003F912F910F900FBE0F901F901895AF9247
:10117000BF92CF92DF92EF92FF920F931F93CF9384
:10118000DF931F92CDB7DEB75C017B018B016C0151
:1011900082E0C80ED11CF80161918F01C5016983FD
:1011A0000E9436126981681719F0C5010E943E122B
:1011B000FFEFAF1ABF0AAC14BD0469F7C7010F9067
:1011C000DF91CF911F910F91FF90EF90DF90CF9023
:1011D000BF90AF9008950F931F93CF93DF938C012F
:1011E000EB010E9436128883C80101960E943612D4
:1011F0008983CE01DF91CF911F910F910895DF92E6
:10120000EF92FF920F931F93CF93DF93EC0120EEA9
:10121000E22EFF24F3940AE510E0DD24D394B80114
:10122000CE010E94570762E370E080E090E00E94E8
:10123000C70695B193FB662760F96D258BE00E9488
:10124000D90544E650E060E070E0C7010E94B301B8
:10125000055011098AE0E81AF10801151105F9F69F
:1012600060E070E0CE010E94570768EE73E080E016
:1012700090E00E94C7069CE2E92EFF24F39400E070
:1012800010E0DD24D394B801CE010E94570762E339
:1012900070E080E090E00E94C70695B193FB66275E
:1012A00060F96D258BE00E94D90544E650E060E0CE
:1012B00070E0C7010E94B3010B5F1F4F8AE0E80E88
:1012C000F11C043B1105F9F664EB70E0CE010E94BD
:1012D000570768EE73E080E090E00E94C70684E95B
:1012E000E82E82E0F82E04EB10E0DD24D394B80160
:1012F000CE010E94570762E370E080E090E00E9418
:10130000C70695B193FB662760F96D258BE00E94B7
:10131000D90544E650E060E070E0C7010E94B301E7
:10132000055011098AE0E81AF1080A351105F9F6A5
:101330006AE570E0CE010E94570768EE73E080E036
:1013400090E00E94C70661E08BE00E94D90544EF5F
:1013500051E060E070E088EE93E00E94B30168EB3A
:101360007BE080E090E00E94C7061092700110922E
:101370006F011092720110927101DF91CF911F9154
:101380000F91FF90EF90DF900895CF92DF92EF9250
:10139000FF920F931F936AE570E085E692E00E944A
:1013A00057070AE510E010938A01009389016AE566
:1013B00070E082E692E00E94570710938C01009340
:1013C0008B016AE570E08FE592E00E9457076AE5BD
:1013D00070E08CE592E00E9457076AE570E089E5CD
:1013E00092E00E94570780916D0190916E01919556
:1013F00081959109909388018093870160E08CE04A
:101400000E94D9050E9401076093B7027093B80249
:101410008093B9029093BA02C090B302D090B40204
:10142000E090B502F090B60200915C0110915D0170
:1014300020915E0130915F010C0D1D1D2E1D3F1D81
:101440000617170728073907D8F560935C017093D2
:101450005D0180935E0190935F018091600188231C
:10146000A1F02B9B09C060E08BE00E94D90584E6C7
:1014700090E0A0E0B0E01CC061E08BE00E94D905E4
:101480008CEB92E0A0E0B0E013C02B9B09C060E0C1
:101490008BE00E94D90584EF91E0A0E0B0E008C0A5
:1014A00061E08BE00E94D9058CED95E0A0E0B0E012
:1014B0008093B3029093B402A093B502B093B602A6
:1014C0001F910F91FF90EF90DF90CF900895ECEB7C
:1014D000F1E01382128288EE93E0A0E0B0E0848312
:1014E0009583A683B78383E191E09183808385EC24
:1014F00090E09587848784EC90E09787868780ECDE
:1015000090E0918B808B81EC90E0938B828B82ECCE
:1015100090E0958B848B86EC90E0978B868B118E78
:10152000128E138E148E0E9401076093AF02709387
:10153000B0028093B1029093B20285E692E00E94DD
:10154000DA0782E692E00E94DA078FE592E00E94D5
:10155000DA078CE592E00E94DA0789E592E00C94C4
:10156000DA07789484B5826084BD84B5816084BDD7
:1015700085B5826085BD85B5816085BD80916E0031
:10158000816080936E001092810080918100826062
:10159000809381008091810081608093810080919F
:1015A00080008160809380008091B100846080938E
:1015B000B1008091B00081608093B00080917A008A
:1015C000846080937A0080917A00826080937A00B0
:1015D00080917A00816080937A0080917A0080689F
:1015E00080937A001092C10044EF51E060E070E017
:1015F0008CE291E00E94B301CCEBD1E0E091CC0110
:10160000F091CD0182E08083E091C801F091C901A1
:101610001082E091CA01F091CB018FEC808310928F
:10162000D401E091D001F091D10186E08083E09176
:10163000CE01F091CF01808180618083E091CE0165
:10164000F091CF01808188608083E091CE01F0919C
:10165000CF01808180688083E091CE01F091CF013D
:1016600080818F7D80834CE350E06FE171E0CE019B
:101670000E94110481E691E090939A02809399026E
:101680008CE180939B02D0939802C09397028DE1E6
:1016900090E00E94FB1090939D0280939C028DE746
:1016A00091E090938C0280938B0284E180938D0271
:1016B000D0938A02C093890285E190E00E94FB10DA
:1016C00090938F0280938E0281E090E090937E0150
:1016D00080937D010E948D009093800180937F0113
:1016E0001092820110928101109284011092830164
:1016F00080E092E090936201809361019093640195
:1017000080936301109266011092650190936801C5
:101710008093670190936A018093690110926C0134
:1017200010926B011092700110926F011092720171
:10173000109271011092740110927301109276014F
:10174000109275018FEF9FEF90937801809377014E
:1017500062E082E00E948B0663E070E085E692E042
:101760000E94A00062E084E00E948B0665E070E0C9
:1017700082E692E00E94A00066E070E08FE592E0D1
:101780000E94A00067E070E089E592E00E94A0005E
:1017900061E088E00E94D90561E088E00E948B0644
:1017A00069E070E08CE592E00E94A00062E08AE0CF
:1017B0000E948B0661E08BE00E948B0661E08CE06A
:1017C0000E948B0661E08DE00E948B060E94C50995
:1017D0006CE672E082E090E00E94EB0880916C027F
:1017E00090916D028130914060F080E091E09093A3
:1017F0006D0280936C026CE672E082E090E00E94E1
:10180000B7086EE672E080E090E00E94EB088091FD
:101810006E0290916F0293508F3F910569F060F0D6
:1018200080E093E090936F0280936E026EE672E028
:1018300080E090E00E94B70880916C0290916D0268
:1018400090936E0180936D010E9401076093760270
:1018500070937702809378029093790210926001DE
:1018600060E088E00E94D90568EC70E080E090E0DC
:101870000E94C70648EE53E060E070E084EF91E01C
:101880000E94B30100E810E0ACE38A2E912CA12C59
:10189000B12CB4E12B2E312C0E9401076B017C018D
:1018A0008091AF029091B002A091B102B091B202CA
:1018B0008C159D05AE05BF0508F0E6C3D701C6012E
:1018C000CC96A11DB11D8093AF029093B002A0935E
:1018D000B102B093B2020E94FE0081110AC06AE018
:1018E00070E080E090E00E94C7060E94FE0088231E
:1018F00099F08091830190918401019690938401E5
:10190000809383010E940107609393027093940275
:1019100080939502909396020E94FE00882399F08E
:10192000809183019091840101969093840180932A
:1019300083010E9401076093930270939402809345
:10194000950290939602809185019091860101966F
:10195000909386018093850170908D028091890219
:1019600090918A02DC01ED91FC910190F081E02DD3
:1019700066E009958091890290918A02DC01ED91DF
:10198000FC910190F081E02D65E809958091890234
:1019900090918A02DC01ED91FC910190F081E02DA3
:1019A00060918D020995C0E0D0E020918D0230E079
:1019B0008091890290918A02C217D3078CF4E0913A
:1019C0008B02F0918C02EC0FFD1F60817626DC010A
:1019D000ED91FC910190F081E02D09952196E5CFE4
:1019E000DC01ED91FC910190F081E02D672D0995CE
:1019F0008091770190917801092E000CAA0BBB0B06
:101A00004091850250918602609187027091880210
:101A100084179507A607B707A1F48091000190915C
:101A20000101A0910201B09103010196A11DB11D18
:101A30008093000190930101A0930201B0930301F0
:101A400008C0109200011092010110920201109240
:101A5000030181E040910001509101016091020178
:101A60007091030142315105610571050CF080E070
:101A700080936001811116C0C701B601A5019401D0
:101A80000E947E12613071058105910541F44AE0A2
:101A900050E060E070E082E390E00E94B3010E94B9
:101AA000C509E2C28091750190917601892B09F4F4
:101AB000F4C1A0916101B091620124EB30E00E9479
:101AC000DA10DC01CB01FAE0B595A79597958795DB
:101AD000FA95D1F78D359105A105B10524F0AC013A
:101AE0004E5F5F4F0BC088359105A105B10524F409
:101AF000AC014250510902C04AE550E0A091670193
:101B0000B091680124EB30E00E94DA106B017C0197
:101B1000EAE0F594E794D794C794EA95D1F74B356A
:101B2000510524F0CA018A55910904C08AE590E064
:101B3000841B950BBCE5CB16D104E104F104C4F081
:101B4000B6016A5571099801281B390B629FC001C3
:101B5000639F900D729F900D112497FF02C08158D2
:101B60009F4F880F892F881F990B845A9F4F24C03D
:101B700029E5C216D104E104F104E4F42AE530E0D9
:101B80002C193D09B801681B790B269FC001279FBE
:101B9000900D369F900D112497FF02C081589F4FE2
:101BA000880F892F881F990B919581959109885AE3
:101BB0009F4F02C08AE590E0EA01C80FD91FCA55BD
:101BC000D109481B590B7A018AE5E80EF11CD7FDB3
:101BD00006C0C53BD1052CF0C4EBD0E002C0C0E08C
:101BE000D0E0F7FC08C095EBE916F10434F054EBB3
:101BF000E52EF12C02C0E12CF12C8091890190910D
:101C00008A018C179D0749F0BE0185E692E00E948B
:101C10005707D0938A01C093890180918B019091DD
:101C20008C018E159F0561F064EB70E06E197F09E1
:101C300082E692E00E945707F0928C01E0928B01BD
:101C4000C0916D01D0916E0180916E0290916F02F2
:101C50008C179D0754F4D0936F02C0936E026EE60A
:101C600072E080E090E00E94B70880916C02909151
:101C70006D02C817D90754F4D0936D02C0936C025B
:101C80006CE672E082E090E00E94B708C0906C02BF
:101C9000D0906D020D2C000CEE08FF08CE01DD0F78
:101CA000AA0BBB0B9C01AD012C193D094E095F0924
:101CB000AAEBBFEF0E94791220916E0230916F0261
:101CC0002901330F66087708A30192012C193D09F9
:101CD0004E095F090E944C1269017A01A6E4CA0EFE
:101CE000D11CE11CF11CD0928801C092870184E0D4
:101CF0000E94B005892B09F4B7C1C1E08091810130
:101D000090918201892B09F0C0E082E00E94B00529
:101D100021E0892B09F420E0C21709F447C061E0F3
:101D20008CE00E94D905B60189E592E00E94570730
:101D3000809171019091720118161906B4F04090CB
:101D400068025090690260906A0270906B020E9473
:101D50000107461657066806790638F46AE570E00A
:101D60008CE592E00E94570710C00E940107DC0139
:101D7000CB0184529A4FAF4FBF4F8093680290932C
:101D80006902A0936A02B0936B0280916F019091F7
:101D90007001181619061CF460E070E002C06AE5D4
:101DA00070E08FE592E00E94570735C060E08CE05C
:101DB0000E94D9056AE570E089E592E00E94570724
:101DC0008AE590E0909388018093870180916F016C
:101DD000909170011816190674F460E070E08FE5B8
:101DE00092E00E94570760E070E08CE592E00E946C
:101DF000570760E00DC06AE570E08FE592E00E9451
:101E000057076AE570E08CE592E00E94570761E0B1
:101E10008DE00E94D9054090680250906902609060
:101E20006A0270906B020E94010746165706680608
:101E3000790678F060E070E08CE592E00E94570748
:101E4000B60189E592E00E94570761E08CE00E94AC
:101E5000D905C0905C01D0905D01E0905E01F090EA
:101E60005F010E940107DC01CB01885E9340A1095C
:101E7000B109C816D906EA06FB0608F0F5C00E94AB
:101E8000010760935C0170935D0180935E01909304
:101E90005F012B9B41C060E040C00E94C50984E007
:101EA0000E94B005892B09F0D9C085B790E09093C6
:101EB0007E0180937D01C0907602D0907702E09001
:101EC0007802F09079020E940107C616D706E8064C
:101ED000F90638F1C0905C01D0905D01E0905E01A0
:101EE000F0905F010E940107DC01CB01845691094B
:101EF000A109B109C816D906EA06FB0608F0B4C064
:101F00000E94010760935C0170935D0180935E0104
:101F100090935F012B998EC061E08BE00E94D90500
:101F2000A3C080916F0190917001181619060CF0F2
:101F300041C08091740290917502019682309105A2
:101F40002CF4909375028093740238C0109275023D
:101F50001092740280917101909172011816190605
:101F60001CF489E592E013C08091670190916801AB
:101F70008B38B2E09B071CF085E692E008C0803900
:101F800091401CF482E692E002C08FE592E00E944C
:101F9000FF080E940107DC01CB018053984FAF4F2F
:101FA000BF4F8093760290937702A0937802B0930C
:101FB000790204C01092750210927402809171012E
:101FC000909172011816190684F580917202909111
:101FD00073020196823091052CF4909373028093E2
:101FE000720278CF109273021092720280916F0188
:101FF00090917001181619061CF489E592E002C050
:102000008CE592E00E94FF080E940107DC01CB01F1
:102010008053984FAF4FBF4F8093760290937702D3
:10202000A0937802B093790255CF10927302109268
:10203000720250CF8091700290917102019690933C
:1020400071028093700245977CF060E08BE00E9403
:10205000D905109271021092700206C08FEF9FEFA7
:1020600090937E0180937D0180917701909178011A
:10207000092E000CAA0BBB0B80938502909386025D
:10208000A0938702B0938802C0918302D09184020A
:10209000CE0124E0959587952A95E1F7C81BD90BC9
:1020A0000E948D0035E0880F991F3A95E1F7B10144
:1020B0000E94C610C60FD71FD0938402C09383021C
:1020C00044E0D595C7954A95E1F7D0938001C09338
:1020D0007F010E94010760937F02709380028093CA
:1020E000810290938202C0907B02D0907C02E090AB
:1020F0007D02F0907E02C616D706E806F906B8F50E
:10210000DC01CB01C296A11DB11D80937B0290938F
:102110007C02A0937D02B0937E028AE00E94B0050B
:102120002091810130918201892B79F42130310590
:1021300071F480917A028F5F80937A028230B8F0D6
:10214000109282011092810112C0232B19F010927B
:102150007A020DC080917A028F5F80937A0282307A
:1021600030F0A1E0B0E0B0938201A09381010E9421
:10217000FE0492CB991B79E004C0991F961708F0D2
:10218000961B881F7A95C9F78095089597FB072EAF
:1021900016F4009407D077FD09D00E94E11007FCE7
:1021A00005D03EF4909581959F4F08957095619567
:1021B0007F4F08950E94A012B7FF0895821B930BD2
:1021C0000895AA1BBB1B51E107C0AA1FBB1FA6177E
:1021D000B70710F0A61BB70B881F991F5A95A9F7D0
:1021E00080959095BC01CD010895EE0FFF1F0590DD
:1021F000F491E02D0994CF93DF938230910510F490
:1022000082E090E0E091C802F091C90220E030E065
:10221000C0E0D0E0309711F1408151814817590753
:10222000C0F04817590761F482819381209719F013
:102230009B838A832BC09093C9028093C80226C0D7
:102240002115310519F04217530718F49A01BE0100
:10225000DF01EF010280F381E02DDCCF2115310594
:1022600009F1281B390B2430310590F412968D9119
:102270009C9113976115710521F0FB019383828373
:1022800004C09093C9028093C802FD01329644C0F5
:10229000FD01E20FF31F81939193225031092D9399
:1022A0003C933AC02091C6023091C702232B41F4DF
:1022B00020910701309108013093C7022093C60294
:1022C00020910501309106012115310541F42DB70A
:1022D0003EB74091090150910A01241B350BE09152
:1022E000C602F091C702E217F307A0F42E1B3F0BC2
:1022F0002817390778F0AC014E5F5F4F2417350778
:1023000048F04E0F5F1F5093C7024093C60281935F
:10231000919302C0E0E0F0E0CF01DF91CF9108950A
:102320000F931F93CF93DF93009709F48CC0FC01A8
:102330003297138212820091C8021091C9020115CE
:10234000110581F420813181820F931F2091C602F3
:102350003091C7022817390779F5F093C702E09347
:10236000C60271C0D80140E050E0AE17BF0750F47C
:1023700012962D913C911397AD012115310509F16C
:10238000D901F3CF9D01DA0133832283608171810A
:10239000860F971F8217930769F4EC012881398112
:1023A000260F371F2E5F3F4F318320838A819B8109
:1023B00093838283452B29F4F093C902E093C802EA
:1023C00042C01396FC93EE931297ED0149915991F7
:1023D0009E01240F351FE217F30771F4808191816C
:1023E000840F951F029611969C938E938281938100
:1023F00013969C938E931297E0E0F0E0D80112962A
:102400008D919C911397009719F0F8018C01F6CFEC
:102410008D919C9198012E5F3F4F820F931F2091C9
:10242000C6023091C7022817390769F4309729F49A
:102430001092C9021092C80202C013821282109335
:10244000C7020093C602DF91CF911F910F910895AB
:1024500081E090E0F8940C94AF12FB01DC0102C023
:1024600001900D9241505040D8F70895F999FECF50
:1024700092BD81BDF89A992780B50895262FF999C4
:10248000FECF1FBA92BD81BD20BD0FB6F894FA9A57
:10249000F99A0FBE01960895052E97FB1EF400943D
:1024A0000E94631257FD07D00E947E1207FC03D0E2
:1024B0004EF40C94631250954095309521953F4F02
:1024C0004F4F5F4F089590958095709561957F4F20
:1024D0008F4F9F4F08950E94A012A59F900DB49F0B
:1024E000900DA49F800D911D11240895B7FF0C94A9
:1024F0006B120E946B12821B930B0895A1E21A2E9D
:10250000AA1BBB1BFD010DC0AA1FBB1FEE1FFF1F97
:10251000A217B307E407F50720F0A21BB30BE40BE7
:10252000F50B661F771F881F991F1A9469F760952E
:102530007095809590959B01AC01BD01CF010895E8
:10254000A29FB001B39FC001A39F700D811D1124F4
:10255000911DB29F700D811D1124911D0895F89455
:02256000FFCFAB
:10256200E8030000FF0000CA028000010000000032
:10257200000000950411045E043C045004DC044392
:102582006F646520666F7220746865205370617293
:102592006B7920526F626F7420627261696E20776C
:1025A2006974682049522062616C6C2073656E7395
:0C25B2006F722032303139303832340082
:00000001FF
