:100000000C9462000C948A000C948A000C948A0070
:100010000C948A000C948A000C948A000C948A0038
:100020000C948A000C948A000C948A000C948D061F
:100030000C948A000C948A000C948A000C948A0018
:100040000C9443060C948A000C9411060C94EB0556
:100050000C948A000C948A000C948A000C948A00F8
:100060000C948A000C948A000000000024002700F1
:100070002A0000000000250028002B0000000000DE
:1000800023002600290004040404040404040202DA
:100090000202020203030303030301020408102007
:1000A0004080010204081020010204081020000012
:1000B0000008000201000003040700000000000027
:1000C00000004E0711241FBECFEFD8E0DEBFCDBF2A
:1000D00022E0ACE5B1E001C01D92A53BB207E1F71B
:1000E00011E0A0E0B1E0E4EEFEE102C005900D9267
:1000F000AC35B107D9F710E0C2E6D0E004C02197D3
:10010000FE010E94B60DC136D107C9F70E949807BB
:100110000C94700F0C94000080E480937C0080911C
:100120007A00806480937A0080917A0086FDFCCF0B
:10013000809178002091790090E0922B0895CF92E1
:10014000DF92EF92FF920F931F93CF93DF936C0197
:100150007A018B01C0E0D0E0CE15DF0589F0D8012F
:100160006D918D01D601ED91FC910190F081E02D12
:10017000C6010995892B11F47E0102C02196ECCFAE
:10018000C701DF91CF911F910F91FF90EF90DF900A
:10019000CF900895FC01918D828D981761F0828D2A
:1001A000DF01A80FB11D5D968C91928D9F5F9F73AB
:1001B000928F90E008958FEF9FEF0895FC01918D4D
:1001C000828D981731F0828DE80FF11D858D90E0BA
:1001D00008958FEF9FEF0895FC01918D228D892F57
:1001E00090E0805C9F4F821B91098F73992708953F
:1001F00081E092E00E94EC0021E0892B09F420E0EC
:10020000822F0895FC01848DDF01A80FB11DA35A30
:10021000BF4F2C91848D90E001968F739927848F26
:10022000A689B7892C93A089B1898C9180648C931D
:10023000938D848D981306C00288F389E02D808108
:100240008F7D80830895EF92FF920F931F93CF933A
:10025000DF93EC0181E0888F9B8D8C8D981305C016
:10026000E889F989808185FD24C0F62E0B8D10E088
:100270000F5F1F4F0F731127E02E8C8DE8120CC0FB
:100280000FB607FCFACFE889F989808185FFF5CFA1
:10029000CE010E940201F1CF8B8DFE01E80FF11D0E
:1002A000E35AFF4FF0820B8FEA89FB8980818062DD
:1002B00007C0EE89FF896083E889F98980818064BD
:1002C000808381E090E0DF91CF911F910F91FF90AB
:1002D000EF900895CF93DF93EC01888D8823C9F0C8
:1002E000EA89FB89808185FD05C0A889B9898C913F
:1002F00086FD0FC00FB607FCF5CF808185FFF2CFDA
:10030000A889B9898C9185FFEDCFCE010E940201A9
:10031000E7CFDF91CF91089580E090E0892B29F01D
:100320000E94F80081110C9400000895833081F040
:1003300028F4813099F08230A1F008958730A9F037
:100340008830B9F08430D1F4809180008F7D03C073
:10035000809180008F7780938000089584B58F7797
:1003600002C084B58F7D84BD08958091B0008F77E1
:1003700003C08091B0008F7D8093B0000895CF932B
:10038000DF93282F30E0F901E255FF4F8491F90106
:10039000E656FF4FD491F901EA57FF4FC491CC23A1
:1003A00091F081110E949601EC2FF0E0EE0FFF1FFB
:1003B000E458FF4FA591B491EC91ED2381E090E0DA
:1003C00021F480E002C080E090E0DF91CF910895B9
:1003D0001F93CF93DF93282F30E0F901E255FF4FB1
:1003E0008491F901E656FF4FD491F901EA57FF4F86
:1003F000C491CC23C9F0162F81110E949601EC2FD5
:10040000F0E0EE0FFF1FEE58FF4FA591B4918FB7AC
:10041000F894111105C09C91ED2FE095E92302C0DD
:10042000EC91ED2BEC938FBFDF91CF911F9108954D
:10043000CF93DF9390E0FC01E656FF4F2491FC013F
:10044000EA57FF4F8491882361F190E0880F991F4C
:10045000FC01E859FF4FC591D491FC01EE58FF4FC4
:10046000A591B491611109C09FB7F8948881209536
:1004700082238883EC912E230BC0623061F49FB7F6
:10048000F8943881822F809583238883EC912E2BDA
:100490002C939FBF06C08FB7F894E8812E2B28833A
:1004A0008FBFDF91CF9108951F93CF93DF93EC011E
:1004B000162F88818C3008F050C061E0812F0E9497
:1004C00018028881E82FF0E09F01220F331FE20F0E
:1004D000F31FE352FE4F1F739081907C192B108302
:1004E0009EE8998394E69A836CE00E947B0D9CE0E1
:1004F000899FB001112440E050E09A01260F371F78
:10050000F901EE0FFF1F2E0F3F1FF901E352FE4FBF
:10051000908196FD16C04F5F5F4F4C30510569F7D3
:1005200081110FC01092800082E0809381001092B0
:10053000850010928400B19A80916F008260809350
:100540006F00E881F0E0CF01880F991FE80FF91FD5
:10055000E352FE4F8081806480838881DF91CF9158
:100560001F9108953FB7F89480916B0190916C01B1
:10057000A0916D01B0916E0126B5A89B05C02F3FDB
:1005800019F00196A11DB11D3FBFBA2FA92F982FB9
:100590008827820F911DA11DB11DBC01CD0142E034
:1005A000660F771F881F991F4A95D1F708958F927C
:1005B0009F92AF92BF92CF92DF92EF92FF926B0128
:1005C0007C010E94B2024B015C01C114D104E10420
:1005D000F104F1F00E94B202DC01CB018819990903
:1005E000AA09BB09883E9340A105B10570F321E03B
:1005F000C21AD108E108F10888EE880E83E0981E3F
:10060000A11CB11CC114D104E104F10419F7DDCF20
:10061000FF90EF90DF90CF90BF90AF909F908F9022
:1006200008952FB7F89460916701709168018091E7
:10063000690190916A012FBF0895CF92DF92EF92E6
:10064000FF92CF93DF93EC01603282E078070CF0E9
:100650003DC077FD06C0653B71052CF064EB70E092
:1006600002C060E070E0898128E830E06901C81AC2
:10067000D10887FDD394CC0CDD1CCC0CDD1C0D2CDB
:10068000000CEE08FF088A8128E532E0281B3109BA
:1006900087FD3395220F331F220F331FC901330FFC
:1006A000AA0BBB0B9C01AD012C193D094E095F093A
:1006B000DB010E94370F24EB30E040E050E00E9465
:1006C0000D0FC20ED31EE41EF51EB60188818C30BC
:1006D00080F5998148E850E0491B510997FD5395F1
:1006E000440F551F440F551F6417750784F09A81F6
:1006F00028E532E0291B310997FD3395220F331F7E
:10070000220F331FAB01261737070CF4A901425003
:100710005109440F551F2FB7F89490E0FC01EE0FDC
:10072000FF1F8E0F9F1FFC01E352FE4F5283418338
:100730002FBFDF91CF91FF90EF90DF90CF90089582
:10074000FC01909165019C30A0F481E0890F8093B9
:1007500065019083892F90E0FC01EE0FFF1F8E0F43
:100760009F1FFC01E352FE4F88EB9BE09283818345
:1007700008958FEF80830895FF920F931F93CF9377
:10078000DF93EC010AE510E0FF24F394B801CE01F9
:100790000E941D0362E370E080E090E00E94D702B7
:1007A00085B183FB662760F96F258BE00E94E80125
:1007B0000550110959F760E070E0CE010E941D0359
:1007C00068EE73E080E090E00E94D70200E010E065
:1007D000FF24F394B801CE010E941D0362E370E090
:1007E00080E090E00E94D70285B183FB662760F924
:1007F0006F258BE00E94E8010B5F1F4F043B110542
:1008000049F764EB70E0CE010E941D0368EE73E0CF
:1008100080E090E00E94D70204EB10E0FF24F39404
:10082000B801CE010E941D0362E370E080E090E019
:100830000E94D70285B183FB662760F96F258BE0A4
:100840000E94E801055011090A35110549F76AE5CA
:1008500070E0CE010E941D0368EE73E080E090E03E
:100860000E94D70261E08BE00E94E80168EB7BE028
:1008700080E090E00E94D7021092A4011092A301A0
:100880001092A6011092A501DF91CF911F910F91B7
:10089000FF900895CF92DF92EF92FF920F931F93F4
:1008A0006AE570E08AEA92E00E941D030AE510E022
:1008B0001093CC010093CB016AE570E087EA92E0E7
:1008C0000E941D031093CE010093CD016AE570E0F4
:1008D00084EA92E00E941D036AE570E081EA92E0FA
:1008E0000E941D036AE570E08EE992E00E941D03FC
:1008F0008091A1019091A201919581959109909388
:10090000CA018093C90160E08CE00E94E8010E9466
:100910001103609360017093610180936201909371
:100920006301C0905C01D0905D01E0905E01F090A9
:100930005F010091790110917A0120917B01309142
:100940007C010C0D1D1D2E1D3F1D061717072807C6
:100950003907D8F56093790170937A0180937B0110
:1009600090937C01809190018823A1F02B9B09C07A
:1009700060E08BE00E94E80184E690E0A0E0B0E057
:100980001CC061E08BE00E94E8018CEB92E0A0E0EB
:10099000B0E013C02B9B09C060E08BE00E94E8012F
:1009A00084EF91E0A0E0B0E008C061E08BE00E943D
:1009B000E8018CED95E0A0E0B0E080935C019093BD
:1009C0005D01A0935E01B0935F011F910F91FF90B5
:1009D000EF90DF90CF900895CF93DF938091DB016C
:1009E000811145C08091D3019091D401DC01ED913A
:1009F000FC910480F581E02D09950397C4F1809165
:100A0000D3019091D401DC01ED91FC910680F78136
:100A1000E02D0995A091D301B091D401ED91FC9105
:100A20001197069741F00480F581E02DCD010995DD
:100A300003972CF74EC00680F781E02DCD01099574
:100A400085389105A1F48091D3019091D401DC0106
:100A5000ED91FC910680F781E02D09958093DB01F3
:100A60009091D701891719F01092DB0132C0809163
:100A7000DB01882371F18091D3019091D401DC01D5
:100A8000ED91FC910480F581E02D09953091DB0119
:100A90002091DA01892BF9F03217E8F0C091D801E2
:100AA000D091D90181E0820F8093DA01C20FD11D6C
:100AB0008091D3019091D401DC01ED91FC910680ED
:100AC000F781E02D09958883D6CF1092DB01109233
:100AD000DA0180E033C0A32FB0E0822F90E0AC01B8
:100AE00041505109A417B507A1F73093DC0160917B
:100AF000D8017091D901FB012091DC01AF01461BA7
:100B0000570B4A175B072CF4319123272093DC0104
:100B1000F3CF860F971FFC01319780812813D5CF23
:100B20004091D70150E08091D5019091D6010E946B
:100B3000EE0E1092DB011092DA0181E0DF91CF918D
:100B400008950E94E90EAF92BF92CF92DF92EF928A
:100B5000FF920F931F93CF93DF931F92CDB7DEB712
:100B60005C017B018B016C0182E0C80ED11CF80195
:100B700061918F01C50169830E94F70E6981681731
:100B800019F0C5010E94FF0EFFEFAF1ABF0AAC14A7
:100B9000BD0469F7C7010F90DF91CF911F910F91AD
:100BA000FF90EF90DF90CF90BF90AF9008950F939C
:100BB0001F93CF93DF938C01EB010E94F70E888384
:100BC000C80101960E94F70E8983CE01DF91CF9173
:100BD0001F910F9108951F920F920FB60F9211243B
:100BE0002F933F934F935F936F937F938F939F9335
:100BF000AF93BF93EF93FF9381E092E00E940201D5
:100C0000FF91EF91BF91AF919F918F917F916F91E4
:100C10005F914F913F912F910F900FBE0F901F90BA
:100C200018951F920F920FB60F9211242F938F9346
:100C30009F93EF93FF93E0911102F0911202808154
:100C4000E0911702F091180282FD12C0908180910C
:100C50001A028F5F8F7320911B02821751F0E0916F
:100C60001A02F0E0EF5FFD4F958F80931A0201C0EA
:100C70008081FF91EF919F918F912F910F900FBEE7
:100C80000F901F9018951F920F920FB60F9211247C
:100C90002F933F938F939F93AF93BF93809167015F
:100CA00090916801A0916901B0916A01309166014B
:100CB00023E0230F2D3720F40196A11DB11D05C09F
:100CC00026E8230F0296A11DB11D20936601809393
:100CD000670190936801A0936901B0936A018091C4
:100CE0006B0190916C01A0916D01B0916E01019624
:100CF000A11DB11D80936B0190936C01A0936D01B8
:100D0000B0936E01BF91AF919F918F913F912F91C1
:100D10000F900FBE0F901F9018951F920F920FB655
:100D20000F9211242F933F934F935F936F937F9371
:100D30008F939F93AF93BF93EF93FF938091640141
:100D400087FF05C010928500109284001BC020917F
:100D50006401022E000C330B8091650190E028178E
:100D6000390784F480916401082E000C990BFC0172
:100D7000EE0FFF1F8E0F9F1FFC01E352FE4F80817D
:100D800086FD15C0809164018F5F8093640120917E
:100D90006401022E000C330B8091650190E028174E
:100DA0003907C4F4809164018C3064F113C08091E0
:100DB0006401082E000C990BFC01EE0FFF1F8E0F33
:100DC0009F1FFC01E352FE4F808160E08F730E9401
:100DD000E801D8CF809184009091850004968034FA
:100DE0009C4918F480E49CE905C0809184009091AE
:100DF0008500049690938900809388008FEF8093FC
:100E000064013BC020918400309185008091640191
:100E1000082E000C990BFC01EE0FFF1F8E0F9F1F79
:100E2000FC01E352FE4F81819281820F931F9093C8
:100E300089008093880080916401082E000C990B32
:100E4000FC01EE0FFF1F8E0F9F1FFC01E352FE4FB0
:100E5000808186FF12C080916401082E000C990BDE
:100E6000FC01EE0FFF1F8E0F9F1FFC01E352FE4F90
:100E7000808161E08F730E94E801FF91EF91BF9143
:100E8000AF919F918F917F916F915F914F913F9122
:100E90002F910F900FBE0F901F901895E1E0F2E098
:100EA0001382128288EE93E0A0E0B0E08483958301
:100EB000A683B78382E191E09183808385EC90E003
:100EC0009587848784EC90E09787868780EC90E014
:100ED000918B808B81EC90E0938B828B82EC90E005
:100EE000958B848B86EC90E0978B868B118E128E7F
:100EF000138E148E0E9411036093AD027093AE02A4
:100F00008093AF029093B0028AEA92E00E94A0031D
:100F100087EA92E00E94A00384EA92E00E94A00384
:100F200081EA92E00E94A0038EE992E00C94A00373
:100F3000789484B5826084BD84B5816084BD85B5B4
:100F4000826085BD85B5816085BD80916E008160C0
:100F500080936E0010928100809181008260809366
:100F60008100809181008160809381008091800068
:100F70008160809380008091B10084608093B10093
:100F80008091B00081608093B00080917A0084608D
:100F900080937A0080917A00826080937A008091B9
:100FA0007A00816080937A0080917A0080688093D3
:100FB0007A001092C100C1E0D2E0E0911102F091FC
:100FC000120282E08083E0910D02F0910E02108205
:100FD000E0910F02F09110028FEC808310921902C1
:100FE000E0911502F091160286E08083E0911302F1
:100FF000F0911402808180618083E0911302F0916E
:101000001402808188608083E0911302F0911402C1
:10101000808180688083E0911302F09114028081C6
:101020008F7D80834CE350E06EE171E0CE010E9441
:101030009F0085E991E09093D6018093D5018CE1E2
:101040008093D701D093D401C093D3018DE190E078
:101050000E94BC0D9093D9018093D8018FEB91E051
:101060009093B4018093B30184E18093B501D09350
:10107000B201C093B10185E190E00E94BC0D909354
:10108000B7018093B60181E090E09093C001809316
:10109000BF010E948C009093C2018093C101109205
:1010A000C4011092C3011092C6011092C50180E0E4
:1010B00092E090939601809395019093980180938C
:1010C000970110929A011092990190939C0180933C
:1010D0009B0190939E0180939D011092A00110921C
:1010E0009F011092A4011092A3011092A6011092E8
:1010F000A5011092A8011092A7011092AA011092C6
:10110000A9018FEF9FEF9093AC018093AB0162E058
:1011100082E00E94180263E070E08AEA92E00E9496
:10112000540262E084E00E94180265E070E087EA01
:1011300092E00E94540266E070E084EA92E00E942D
:10114000540267E070E08EE992E00E94540261E090
:1011500088E00E94E80161E088E00E94180269E0EE
:1011600070E081EA92E00E94540262E08AE00E940C
:10117000180261E08BE00E94180261E08CE00E949E
:10118000180261E08DE00E9418020E944A0463E7A1
:1011900071E082E090E00E94D70580917301909108
:1011A00074018130914060F080E091E0909374018F
:1011B0008093730163E771E082E090E00E94A305F1
:1011C00065E771E080E090E00E94D70580917501AD
:1011D0009091760193508F3F910569F060F080E027
:1011E00093E0909376018093750165E771E080E06C
:1011F00090E00E94A30580917301909174019093F7
:10120000A2018093A1010E94110360938101709358
:10121000820180938301909384011092900160E099
:1012200088E00E94E80122242A94322C04EB10E08A
:10123000C0E8D0E044E1E42EF12CCC24C394D12CBE
:101240000E9411038090AD029090AE02A090AF0278
:10125000B090B00286169706A806B90608F0D6C365
:10126000DC01CB01CC96A11DB11D8093AD02909302
:10127000AE02A093AF02B093B0020E94EC048111C1
:101280000AC06AE070E080E090E00E94D7020E940D
:10129000EC04882399F08091C5019091C6010196D4
:1012A0009093C6018093C5010E9411036093BB0116
:1012B0007093BC018093BD019093BE010E94EC0429
:1012C000882399F08091C5019091C6010196909371
:1012D000C6018093C5010E9411036093BB01709306
:1012E000BC018093BD019093BE018091C701909194
:1012F000C80101969093C8018093C7019090B501F1
:101300008091B1019091B201DC01ED91FC910190CD
:10131000F081E02D66E009958091B1019091B201D4
:10132000DC01ED91FC910190F081E02D65E80995DB
:101330008091B1019091B201DC01ED91FC9101909D
:10134000F081E02D6091B5010995A12CB12C20917F
:10135000B50130E08091B1019091B201A216B306BF
:101360009CF4E091B301F091B401EA0DFB1D6081A2
:101370009626DC01ED91FC910190F081E02D09951C
:10138000BFEFAB1ABB0AE3CFDC01ED91FC910190FA
:10139000F081E02D692D09958091AB019091AC0110
:1013A000092E000CAA0BBB0B4091910150919201A8
:1013B000609193017091940184179507A607B70770
:1013C000A1F48091000190910101A0910201B091DE
:1013D00003010196A11DB11D8093000190930101AD
:1013E000A0930201B093030108C010920001109273
:1013F0000101109202011092030181E0409100016D
:101400005091010160910201709103014B3051052F
:10141000610571050CF080E080939001811103C09B
:101420000E944A04E3C28091A9019091AA01892BEC
:1014300009F4F7C1A0919501B091960124EB30E039
:101440000E949B0DDC01CB012AE0B595A7959795ED
:1014500087952A95D1F78D359105A105B10524F021
:10146000AC014E5F5F4F0BC088359105A105B105FA
:1014700024F4AC014250510902C04AE550E0A09169
:101480009B01B0919C0124EB30E00E949B0D4B012D
:101490005C01FAE0B594A79497948794FA95D1F7F4
:1014A0004B35510524F0CA018A55910904C08AE5DB
:1014B00090E0841B950BBCE58B169104A104B1044C
:1014C000C4F02AE5821A91089E01281B390B829EDE
:1014D000C001839E900D929E900D112497FF02C033
:1014E00081589F4F880F892F881F990B845A9F4FCF
:1014F00024C0A9E58A169104A104B104E4F42AE504
:1015000030E028193909BE01681B790B269FC001FC
:10151000279F900D369F900D112497FF02C0815890
:101520009F4F880F892F881F990B9195819591095D
:10153000885A9F4F02C08AE590E05A01A80EB91E52
:10154000BAE5AB1AB108481B590B4A012AE5820ECD
:10155000911CB7FC08C085EBA816B10434F064EB0D
:10156000A62EB12C02C0A12CB12C97FC08C0A5EB73
:101570008A16910434F054EB852E912C02C0812CF4
:10158000912C8091CB019091CC018A159B0549F05B
:10159000B5018AEA92E00E941D03B092CC01A092AC
:1015A000CB018091CD019091CE018815990559F01C
:1015B000B8016819790987EA92E00E941D039092A8
:1015C000CE018092CD01A090A101B090A2018091A6
:1015D0007501909176018A159B0554F4B0927601BD
:1015E000A092750165E771E080E090E00E94A3059C
:1015F0008091730190917401A816B90654F4B092C9
:101600007401A092730163E771E082E090E00E94B0
:10161000A3054090730150907401052C000C6608DE
:101620007708C501BB0CAA0BBB0B9C01AD012419AB
:10163000350946095709AAEBBFEF0E943A0F2091DE
:101640007501309176014901330FAA08BB08A50145
:10165000940124193509460957090E940D0F4901C3
:101660005A01B6E48B0E911CA11CB11C9092CA01C8
:101670008092C90184E00E94BF01892B09F4B6C1A0
:10168000772473948091C3019091C401892B09F050
:10169000712C82E00E94BF0121E0892B09F420E037
:1016A000721609F447C061E08CE00E94E801B401C1
:1016B0008EE992E00E941D038091A5019091A60100
:1016C00018161906B4F040906F01509070016090A8
:1016D0007101709072010E94110346165706680648
:1016E000790638F46AE570E081EA92E00E941D0311
:1016F00010C00E941103DC01CB0184529A4FAF4FFE
:10170000BF4F80936F0190937001A0937101B093CC
:1017100072018091A3019091A401181619061CF47E
:1017200060E070E002C06AE570E084EA92E00E9446
:101730001D0335C060E08CE00E94E8016AE570E0BE
:101740008EE992E00E941D038AE590E09093CA0121
:101750008093C9018091A3019091A40118161906E4
:1017600074F460E070E084EA92E00E941D0360E09F
:1017700070E081EA92E00E941D0360E00DC06AE51E
:1017800070E084EA92E00E941D036AE570E081EA5D
:1017900092E00E941D0361E08DE00E94E80140900C
:1017A0006F015090700160907101709072010E9401
:1017B0001103461657066806790678F060E070E077
:1017C00081EA92E00E941D03B4018EE992E00E943A
:1017D0001D0361E08CE00E94E80180907901909007
:1017E0007A01A0907B01B0907C010E941103DC0182
:1017F000CB01885E9340A109B10988169906AA0613
:10180000BB0608F0F3C00E94110360937901709346
:101810007A0180937B0190937C012B9B41C060E017
:1018200040C00E944A0484E00E94BF01892B09F055
:10183000D9C085B790E09093C0018093BF0180909C
:10184000810190908201A0908301B09084010E9458
:10185000110386169706A806B90638F1809079011B
:1018600090907A01A0907B01B0907C010E941103BE
:10187000DC01CB0184569109A109B10988169906AA
:10188000AA06BB0608F0B2C00E941103609379015A
:1018900070937A0180937B0190937C012B998EC089
:1018A00061E08BE00E94E801A1C08091A3019091CA
:1018B000A401181619060CF041C080917F01909187
:1018C00080010196823091052CF4909380018093E1
:1018D0007F0138C01092800110927F018091A50194
:1018E0009091A601181619061CF48EE992E013C017
:1018F00080919B0190919C018B3822E092071CF013
:101900008AEA92E008C0803991401CF487EA92E0AC
:1019100002C084EA92E00E94BC030E941103DC0131
:10192000CB018053984FAF4FBF4F8093810190936D
:101930008201A0938301B093840104C010928001BE
:1019400010927F018091A5019091A60118161906A9
:1019500084F580917D0190917E0101968230910500
:101960002CF490937E0180937D0178CF10927E01BC
:1019700010927D018091A3019091A401181619067F
:101980001CF48EE992E002C081EA92E00E94BC035E
:101990000E941103DC01CB018053984FAF4FBF4F22
:1019A0008093810190938201A0938301B09384017D
:1019B00055CF10927E0110927D0150CF809177011A
:1019C00090917801019690937801809377014597E3
:1019D0006CF060E08BE00E94E801109278011092B8
:1019E000770104C03092C0012092BF018091AB0109
:1019F0009091AC01092E000CAA0BBB0B80939101B6
:101A000090939201A0939301B093940160918E0101
:101A100070918F01CB0124E0959587952A95E1F788
:101A20005B01A81AB90A0E948C0035E0880F991F43
:101A30003A95E1F7B7010E94870D6A0D7B1D7093FF
:101A40008F0160938E0144E0759567954A95E1F7A3
:101A50007093C2016093C1010E94110360938A01D7
:101A600070938B0180938C0190938D0180908601FF
:101A700090908701A0908801B09089018616970602
:101A8000A806B906A8F5DC01CB01C296A11DB11DBF
:101A90008093860190938701A0938801B093890178
:101AA0008AE00E94BF012091C3013091C401892BBB
:101AB00079F42130310571F4809185018F5F809335
:101AC00085018230A8F01092C4011092C30110C0A9
:101AD000232B19F0109285010BC0809185018F5F37
:101AE00080938501823020F0D092C401C092C3015E
:101AF0000E948C01A5CB991B79E004C0991F961711
:101B000008F0961B881F7A95C9F78095089597FB72
:101B1000072E16F4009407D077FD09D00E94A20D7D
:101B200007FC05D03EF4909581959F4F08957095E0
:101B300061957F4F08950E94610FB7FF0895821B42
:101B4000930B0895AA1BBB1B51E107C0AA1FBB1F23
:101B5000A617B70710F0A61BB70B881F991F5A9539
:101B6000A9F780959095BC01CD010895EE0FFF1F58
:101B70000590F491E02D0994CF93DF938230910585
:101B800010F482E090E0E091B302F091B40220E022
:101B900030E0C0E0D0E0309711F14081518148172A
:101BA0005907C0F04817590761F482819381209743
:101BB00019F09B838A832BC09093B4028093B30265
:101BC00026C02115310519F04217530718F49A0160
:101BD000BE01DF01EF010280F381E02DDCCF211592
:101BE000310509F1281B390B2430310590F4129688
:101BF0008D919C9113976115710521F0FB019383E1
:101C0000828304C09093B4028093B302FD013296A4
:101C100044C0FD01E20FF31F8193919322503109DB
:101C20002D933C933AC02091B1023091B202232B04
:101C300041F420910601309107013093B2022093C4
:101C4000B10220910401309105012115310541F4C3
:101C50002DB73EB74091080150910901241B350B67
:101C6000E091B102F091B202E217F307A0F42E1B4B
:101C70003F0B2817390778F0AC014E5F5F4F2417F0
:101C8000350748F04E0F5F1F5093B2024093B102E8
:101C90008193919302C0E0E0F0E0CF01DF91CF911A
:101CA00008950F931F93CF93DF93009709F48CC08F
:101CB000FC013297138212820091B3021091B40298
:101CC0000115110581F420813181820F931F20912C
:101CD000B1023091B2022817390779F5F093B202B8
:101CE000E093B10271C0D80140E050E0AE17BF07E9
:101CF00050F412962D913C911397AD0121153105A9
:101D000009F1D901F3CF9D01DA0133832283608188
:101D10007181860F971F8217930769F4EC01288160
:101D20003981260F371F2E5F3F4F318320838A81F1
:101D30009B8193838283452B29F4F093B402E09333
:101D4000B30242C01396FC93EE931297ED014991B2
:101D500059919E01240F351FE217F30771F480811A
:101D60009181840F951F029611969C938E93828188
:101D7000938113969C938E931297E0E0F0E0D80144
:101D800012968D919C911397009719F0F8018C0190
:101D9000F6CF8D919C9198012E5F3F4F820F931F3C
:101DA0002091B1023091B2022817390769F43097B7
:101DB00029F41092B4021092B30202C0138212826C
:101DC0001093B2020093B102DF91CF911F910F9156
:101DD000089581E090E0F8940C94700FFB01DC0111
:101DE00002C001900D9241505040D8F70895F999E2
:101DF000FECF92BD81BDF89A992780B50895262F10
:101E0000F999FECF1FBA92BD81BD20BD0FB6F894DF
:101E1000FA9AF99A0FBE01960895052E97FB1EF4C3
:101E200000940E94240F57FD07D00E943F0F07FC2B
:101E300003D04EF40C94240F509540953095219585
:101E40003F4F4F4F5F4F08959095809570956195E6
:101E50007F4F8F4F9F4F08950E94610FA59F900D58
:101E6000B49F900DA49F800D911D11240895B7FF7C
:101E70000C942C0F0E942C0F821B930B0895A1E24F
:101E80001A2EAA1BBB1BFD010DC0AA1FBB1FEE1FF4
:101E9000FF1FA217B307E407F50720F0A21BB30B3F
:101EA000E40BF50B661F771F881F991F1A9469F7BB
:101EB00060957095809590959B01AC01BD01CF0117
:101EC0000895A29FB001B39FC001A39F700D811D13
:101ED0001124911DB29F700D811D1124911D089533
:041EE000F894FFCFA4
:101EE400E80300000000B5028000010000000000CB
:101EF400000023019F00EC00CA00DE006A01436F6A
:101F0400646520666F722074686520537061726B1B
:101F14007920526F626F7420627261696E207769F2
:101F240074682049522062616C6C2073656E736F13
:0C1F340072203230313930383234000075
:00000001FF
